
00000001NAME1                         PARIS               0190000720200101
00000002NAME2                         LYON                0200001420200202
00000003NAME3                         MARSEILLE           0210002120200303
00000004NAME4                         LILLE               0220002820200404
00000005NAME5                         NANTES              0230003520200505
00000006NAME6                         BORDEAUX            0240004220200606
00000007NAME7                         TOULOUSE            0250004920200707
00000008NAME8                         NICE                0260005620200808
00000009NAME9                         PARIS               0270006320200909
00000010NAME10                        LYON                0280007020201010
00000011NAME11                        MARSEILLE           0290007720201111
00000012NAME12                        LILLE               0300008420201212
00000013NAME13                        NANTES              0310009120200113
00000014NAME14                        BORDEAUX            0320009820200214
00000015NAME15                        TOULOUSE            0330010520200315
00000016NAME16                        NICE                0340011220200416
00000017NAME17                        PARIS               0350011920200517
00000018NAME18                        LYON                0360012620200618
00000019NAME19                        MARSEILLE           0370013320200719
00000020NAME20                        LILLE               0380014020200820
00000021NAME21                        NANTES              0390014720200921
00000022NAME22                        BORDEAUX            0400015420201022
00000023NAME23                        TOULOUSE            0410016120201123
00000024NAME24                        NICE                0420016820201224
00000025NAME25                        PARIS               0430017520200125
00000026NAME26                        LYON                0440018220200226
00000027NAME27                        MARSEILLE           0450018920200327
00000028NAME28                        LILLE               0460019620200428
00000029NAME29                        NANTES              0470020320200501
00000030NAME30                        BORDEAUX            0480021020200602
00000031NAME31                        TOULOUSE            0490021720200703
00000032NAME32                        NICE                0500022420200804
00000033NAME33                        PARIS               0510023120200905
00000034NAME34                        LYON                0520023820201006
00000035NAME35                        MARSEILLE           0530024520201107
00000036NAME36                        LILLE               0540025220201208
00000037NAME37                        NANTES              0550025920200109
00000038NAME38                        BORDEAUX            0560026620200210
00000039NAME39                        TOULOUSE            0570027320200311
00000040NAME40                        NICE                0580028020200412
00000041NAME41                        PARIS               0590028720200513
00000042NAME42                        LYON                0600029420200614
00000043NAME43                        MARSEILLE           0610030120200715
00000044NAME44                        LILLE               0620030820200816
00000045NAME45                        NANTES              0630031520200917
00000046NAME46                        BORDEAUX            0640032220201018
00000047NAME47                        TOULOUSE            0650032920201119
00000048NAME48                        NICE                0660033620201220
00000049NAME49                        PARIS               0670034320200121
00000050NAME50                        LYON                0680035020200222
00000051NAME51                        MARSEILLE           0690035720200323
00000052NAME52                        LILLE               0700036420200424
00000053NAME53                        NANTES              0710037120200525
00000054NAME54                        BORDEAUX            0720037820200626
00000055NAME55                        TOULOUSE            0730038520200727
00000056NAME56                        NICE                0740039220200828
00000057NAME57                        PARIS               0750039920200901
00000058NAME58                        LYON                0760040620201002
00000059NAME59                        MARSEILLE           0770041320201103
00000060NAME60                        LILLE               0780042020201204
00000061NAME61                        NANTES              0790042720200105
00000062NAME62                        BORDEAUX            0800043420200206
00000063NAME63                        TOULOUSE            0810044120200307
00000064NAME64                        NICE                0820044820200408
00000065NAME65                        PARIS               0830045520200509
00000066NAME66                        LYON                0840046220200610
00000067NAME67                        MARSEILLE           0850046920200711
00000068NAME68                        LILLE               0860047620200812
00000069NAME69                        NANTES              0870048320200913
00000070NAME70                        BORDEAUX            0180049020201014
00000071NAME71                        TOULOUSE            0190049720201115
00000072NAME72                        NICE                0200050420201216
00000073NAME73                        PARIS               0210051120200117
00000074NAME74                        LYON                0220051820200218
00000075NAME75                        MARSEILLE           0230052520200319
00000076NAME76                        LILLE               0240053220200420
00000077NAME77                        NANTES              0250053920200521
00000078NAME78                        BORDEAUX            0260054620200622
00000079NAME79                        TOULOUSE            0270055320200723
00000080NAME80                        NICE                0280056020200824
00000081NAME81                        PARIS               0290056720200925
00000082NAME82                        LYON                0300057420201026
00000083NAME83                        MARSEILLE           0310058120201127
00000084NAME84                        LILLE               0320058820201228
00000085NAME85                        NANTES              0330059520200101
00000086NAME86                        BORDEAUX            0340060220200202
00000087NAME87                        TOULOUSE            0350060920200303
00000088NAME88                        NICE                0360061620200404
00000089NAME89                        PARIS               0370062320200505
00000090NAME90                        LYON                0380063020200606
00000091NAME91                        MARSEILLE           0390063720200707
00000092NAME92                        LILLE               0400064420200808
00000093NAME93                        NANTES              0410065120200909
00000094NAME94                        BORDEAUX            0420065820201010
00000095NAME95                        TOULOUSE            0430066520201111
00000096NAME96                        NICE                0440067220201212
00000097NAME97                        PARIS               0450067920200113
00000098NAME98                        LYON                0460068620200214
00000099NAME99                        MARSEILLE           0470069320200315
00000100NAME100                       LILLE               0480070020200416
00000101NAME101                       NANTES              0490070720200517
00000102NAME102                       BORDEAUX            0500071420200618
00000103NAME103                       TOULOUSE            0510072120200719
00000104NAME104                       NICE                0520072820200820
00000105NAME105                       PARIS               0530073520200921
00000106NAME106                       LYON                0540074220201022
00000107NAME107                       MARSEILLE           0550074920201123
00000108NAME108                       LILLE               0560075620201224
00000109NAME109                       NANTES              0570076320200125
00000110NAME110                       BORDEAUX            0580077020200226
00000111NAME111                       TOULOUSE            0590077720200327
00000112NAME112                       NICE                0600078420200428
00000113NAME113                       PARIS               0610079120200501
00000114NAME114                       LYON                0620079820200602
00000115NAME115                       MARSEILLE           0630080520200703
00000116NAME116                       LILLE               0640081220200804
00000117NAME117                       NANTES              0650081920200905
00000118NAME118                       BORDEAUX            0660082620201006
00000119NAME119                       TOULOUSE            0670083320201107
00000120NAME120                       NICE                0680084020201208
00000121NAME121                       PARIS               0690084720200109
00000122NAME122                       LYON                0700085420200210
00000123NAME123                       MARSEILLE           0710086120200311
00000124NAME124                       LILLE               0720086820200412
00000125NAME125                       NANTES              0730087520200513
00000126NAME126                       BORDEAUX            0740088220200614
00000127NAME127                       TOULOUSE            0750088920200715
00000128NAME128                       NICE                0760089620200816
00000129NAME129                       PARIS               0770090320200917
00000130NAME130                       LYON                0780091020201018
00000131NAME131                       MARSEILLE           0790091720201119
00000132NAME132                       LILLE               0800092420201220
00000133NAME133                       NANTES              0810093120200121
00000134NAME134                       BORDEAUX            0820093820200222
00000135NAME135                       TOULOUSE            0830094520200323
00000136NAME136                       NICE                0840095220200424
00000137NAME137                       PARIS               0850095920200525
00000138NAME138                       LYON                0860096620200626
00000139NAME139                       MARSEILLE           0870097320200727
00000140NAME140                       LILLE               0180098020200828
00000141NAME141                       NANTES              0190098720200901
00000142NAME142                       BORDEAUX            0200099420201002
00000143NAME143                       TOULOUSE            0210100120201103
00000144NAME144                       NICE                0220100820201204
00000145NAME145                       PARIS               0230101520200105
00000146NAME146                       LYON                0240102220200206
00000147NAME147                       MARSEILLE           0250102920200307
00000148NAME148                       LILLE               0260103620200408
00000149NAME149                       NANTES              0270104320200509
00000150NAME150                       BORDEAUX            0280105020200610
00000151NAME151                       TOULOUSE            0290105720200711
00000152NAME152                       NICE                0300106420200812
00000153NAME153                       PARIS               0310107120200913
00000154NAME154                       LYON                0320107820201014
00000155NAME155                       MARSEILLE           0330108520201115
00000156NAME156                       LILLE               0340109220201216
00000157NAME157                       NANTES              0350109920200117
00000158NAME158                       BORDEAUX            0360110620200218
00000159NAME159                       TOULOUSE            0370111320200319
00000160NAME160                       NICE                0380112020200420
00000161NAME161                       PARIS               0390112720200521
00000162NAME162                       LYON                0400113420200622
00000163NAME163                       MARSEILLE           0410114120200723
00000164NAME164                       LILLE               0420114820200824
00000165NAME165                       NANTES              0430115520200925
00000166NAME166                       BORDEAUX            0440116220201026
00000167NAME167                       TOULOUSE            0450116920201127
00000168NAME168                       NICE                0460117620201228
00000169NAME169                       PARIS               0470118320200101
00000170NAME170                       LYON                0480119020200202
00000171NAME171                       MARSEILLE           0490119720200303
00000172NAME172                       LILLE               0500120420200404
00000173NAME173                       NANTES              0510121120200505
00000174NAME174                       BORDEAUX            0520121820200606
00000175NAME175                       TOULOUSE            0530122520200707
00000176NAME176                       NICE                0540123220200808
00000177NAME177                       PARIS               0550123920200909
00000178NAME178                       LYON                0560124620201010
00000179NAME179                       MARSEILLE           0570125320201111
00000180NAME180                       LILLE               0580126020201212
00000181NAME181                       NANTES              0590126720200113
00000182NAME182                       BORDEAUX            0600127420200214
00000183NAME183                       TOULOUSE            0610128120200315
00000184NAME184                       NICE                0620128820200416
00000185NAME185                       PARIS               0630129520200517
00000186NAME186                       LYON                0640130220200618
00000187NAME187                       MARSEILLE           0650130920200719
00000188NAME188                       LILLE               0660131620200820
00000189NAME189                       NANTES              0670132320200921
00000190NAME190                       BORDEAUX            0680133020201022
00000191NAME191                       TOULOUSE            0690133720201123
00000192NAME192                       NICE                0700134420201224
00000193NAME193                       PARIS               0710135120200125
00000194NAME194                       LYON                0720135820200226
00000195NAME195                       MARSEILLE           0730136520200327
00000196NAME196                       LILLE               0740137220200428
00000197NAME197                       NANTES              0750137920200501
00000198NAME198                       BORDEAUX            0760138620200602
00000199NAME199                       TOULOUSE            0770139320200703
00000200NAME200                       NICE                0780140020200804
00000201NAME201                       PARIS               0790140720200905
00000202NAME202                       LYON                0800141420201006
00000203NAME203                       MARSEILLE           0810142120201107
00000204NAME204                       LILLE               0820142820201208
00000205NAME205                       NANTES              0830143520200109
00000206NAME206                       BORDEAUX            0840144220200210
00000207NAME207                       TOULOUSE            0850144920200311
00000208NAME208                       NICE                0860145620200412
00000209NAME209                       PARIS               0870146320200513
00000210NAME210                       LYON                0180147020200614
00000211NAME211                       MARSEILLE           0190147720200715
00000212NAME212                       LILLE               0200148420200816
00000213NAME213                       NANTES              0210149120200917
00000214NAME214                       BORDEAUX            0220149820201018
00000215NAME215                       TOULOUSE            0230150520201119
00000216NAME216                       NICE                0240151220201220
00000217NAME217                       PARIS               0250151920200121
00000218NAME218                       LYON                0260152620200222
00000219NAME219                       MARSEILLE           0270153320200323
00000220NAME220                       LILLE               0280154020200424
00000221NAME221                       NANTES              0290154720200525
00000222NAME222                       BORDEAUX            0300155420200626
00000223NAME223                       TOULOUSE            0310156120200727
00000224NAME224                       NICE                0320156820200828
00000225NAME225                       PARIS               0330157520200901
00000226NAME226                       LYON                0340158220201002
00000227NAME227                       MARSEILLE           0350158920201103
00000228NAME228                       LILLE               0360159620201204
00000229NAME229                       NANTES              0370160320200105
00000230NAME230                       BORDEAUX            0380161020200206
00000231NAME231                       TOULOUSE            0390161720200307
00000232NAME232                       NICE                0400162420200408
00000233NAME233                       PARIS               0410163120200509
00000234NAME234                       LYON                0420163820200610
00000235NAME235                       MARSEILLE           0430164520200711
00000236NAME236                       LILLE               0440165220200812
00000237NAME237                       NANTES              0450165920200913
00000238NAME238                       BORDEAUX            0460166620201014
00000239NAME239                       TOULOUSE            0470167320201115
00000240NAME240                       NICE                0480168020201216
00000241NAME241                       PARIS               0490168720200117
00000242NAME242                       LYON                0500169420200218
00000243NAME243                       MARSEILLE           0510170120200319
00000244NAME244                       LILLE               0520170820200420
00000245NAME245                       NANTES              0530171520200521
00000246NAME246                       BORDEAUX            0540172220200622
00000247NAME247                       TOULOUSE            0550172920200723
00000248NAME248                       NICE                0560173620200824
00000249NAME249                       PARIS               0570174320200925
00000250NAME250                       LYON                0580175020201026
00000251NAME251                       MARSEILLE           0590175720201127
00000252NAME252                       LILLE               0600176420201228
00000253NAME253                       NANTES              0610177120200101
00000254NAME254                       BORDEAUX            0620177820200202
00000255NAME255                       TOULOUSE            0630178520200303
00000256NAME256                       NICE                0640179220200404
00000257NAME257                       PARIS               0650179920200505
00000258NAME258                       LYON                0660180620200606
00000259NAME259                       MARSEILLE           0670181320200707
00000260NAME260                       LILLE               0680182020200808
00000261NAME261                       NANTES              0690182720200909
00000262NAME262                       BORDEAUX            0700183420201010
00000263NAME263                       TOULOUSE            0710184120201111
00000264NAME264                       NICE                0720184820201212
00000265NAME265                       PARIS               0730185520200113
00000266NAME266                       LYON                0740186220200214
00000267NAME267                       MARSEILLE           0750186920200315
00000268NAME268                       LILLE               0760187620200416
00000269NAME269                       NANTES              0770188320200517
00000270NAME270                       BORDEAUX            0780189020200618
00000271NAME271                       TOULOUSE            0790189720200719
00000272NAME272                       NICE                0800190420200820
00000273NAME273                       PARIS               0810191120200921
00000274NAME274                       LYON                0820191820201022
00000275NAME275                       MARSEILLE           0830192520201123
00000276NAME276                       LILLE               0840193220201224
00000277NAME277                       NANTES              0850193920200125
00000278NAME278                       BORDEAUX            0860194620200226
00000279NAME279                       TOULOUSE            0870195320200327
00000280NAME280                       NICE                0180196020200428
00000281NAME281                       PARIS               0190196720200501
00000282NAME282                       LYON                0200197420200602
00000283NAME283                       MARSEILLE           0210198120200703
00000284NAME284                       LILLE               0220198820200804
00000285NAME285                       NANTES              0230199520200905
00000286NAME286                       BORDEAUX            0240200220201006
00000287NAME287                       TOULOUSE            0250200920201107
00000288NAME288                       NICE                0260201620201208
00000289NAME289                       PARIS               0270202320200109
00000290NAME290                       LYON                0280203020200210
00000291NAME291                       MARSEILLE           0290203720200311
00000292NAME292                       LILLE               0300204420200412
00000293NAME293                       NANTES              0310205120200513
00000294NAME294                       BORDEAUX            0320205820200614
00000295NAME295                       TOULOUSE            0330206520200715
00000296NAME296                       NICE                0340207220200816
00000297NAME297                       PARIS               0350207920200917
00000298NAME298                       LYON                0360208620201018
00000299NAME299                       MARSEILLE           0370209320201119
00000300NAME300                       LILLE               0380210020201220
00000301NAME301                       NANTES              0390210720200121
00000302NAME302                       BORDEAUX            0400211420200222
00000303NAME303                       TOULOUSE            0410212120200323
00000304NAME304                       NICE                0420212820200424
00000305NAME305                       PARIS               0430213520200525
00000306NAME306                       LYON                0440214220200626
00000307NAME307                       MARSEILLE           0450214920200727
00000308NAME308                       LILLE               0460215620200828
00000309NAME309                       NANTES              0470216320200901
00000310NAME310                       BORDEAUX            0480217020201002
00000311NAME311                       TOULOUSE            0490217720201103
00000312NAME312                       NICE                0500218420201204
00000313NAME313                       PARIS               0510219120200105
00000314NAME314                       LYON                0520219820200206
00000315NAME315                       MARSEILLE           0530220520200307
00000316NAME316                       LILLE               0540221220200408
00000317NAME317                       NANTES              0550221920200509
00000318NAME318                       BORDEAUX            0560222620200610
00000319NAME319                       TOULOUSE            0570223320200711
00000320NAME320                       NICE                0580224020200812
00000321NAME321                       PARIS               0590224720200913
00000322NAME322                       LYON                0600225420201014
00000323NAME323                       MARSEILLE           0610226120201115
00000324NAME324                       LILLE               0620226820201216
00000325NAME325                       NANTES              0630227520200117
00000326NAME326                       BORDEAUX            0640228220200218
00000327NAME327                       TOULOUSE            0650228920200319
00000328NAME328                       NICE                0660229620200420
00000329NAME329                       PARIS               0670230320200521
00000330NAME330                       LYON                0680231020200622
00000331NAME331                       MARSEILLE           0690231720200723
00000332NAME332                       LILLE               0700232420200824
00000333NAME333                       NANTES              0710233120200925
00000334NAME334                       BORDEAUX            0720233820201026
00000335NAME335                       TOULOUSE            0730234520201127
00000336NAME336                       NICE                0740235220201228
00000337NAME337                       PARIS               0750235920200101
00000338NAME338                       LYON                0760236620200202
00000339NAME339                       MARSEILLE           0770237320200303
00000340NAME340                       LILLE               0780238020200404
00000341NAME341                       NANTES              0790238720200505
00000342NAME342                       BORDEAUX            0800239420200606
00000343NAME343                       TOULOUSE            0810240120200707
00000344NAME344                       NICE                0820240820200808
00000345NAME345                       PARIS               0830241520200909
00000346NAME346                       LYON                0840242220201010
00000347NAME347                       MARSEILLE           0850242920201111
00000348NAME348                       LILLE               0860243620201212
00000349NAME349                       NANTES              0870244320200113
00000350NAME350                       BORDEAUX            0180245020200214
00000351NAME351                       TOULOUSE            0190245720200315
00000352NAME352                       NICE                0200246420200416
00000353NAME353                       PARIS               0210247120200517
00000354NAME354                       LYON                0220247820200618
00000355NAME355                       MARSEILLE           0230248520200719
00000356NAME356                       LILLE               0240249220200820
00000357NAME357                       NANTES              0250249920200921
00000358NAME358                       BORDEAUX            0260250620201022
00000359NAME359                       TOULOUSE            0270251320201123
00000360NAME360                       NICE                0280252020201224
00000361NAME361                       PARIS               0290252720200125
00000362NAME362                       LYON                0300253420200226
00000363NAME363                       MARSEILLE           0310254120200327
00000364NAME364                       LILLE               0320254820200428
00000365NAME365                       NANTES              0330255520200501
00000366NAME366                       BORDEAUX            0340256220200602
00000367NAME367                       TOULOUSE            0350256920200703
00000368NAME368                       NICE                0360257620200804
00000369NAME369                       PARIS               0370258320200905
00000370NAME370                       LYON                0380259020201006
00000371NAME371                       MARSEILLE           0390259720201107
00000372NAME372                       LILLE               0400260420201208
00000373NAME373                       NANTES              0410261120200109
00000374NAME374                       BORDEAUX            0420261820200210
00000375NAME375                       TOULOUSE            0430262520200311
00000376NAME376                       NICE                0440263220200412
00000377NAME377                       PARIS               0450263920200513
00000378NAME378                       LYON                0460264620200614
00000379NAME379                       MARSEILLE           0470265320200715
00000380NAME380                       LILLE               0480266020200816
00000381NAME381                       NANTES              0490266720200917
00000382NAME382                       BORDEAUX            0500267420201018
00000383NAME383                       TOULOUSE            0510268120201119
00000384NAME384                       NICE                0520268820201220
00000385NAME385                       PARIS               0530269520200121
00000386NAME386                       LYON                0540270220200222
00000387NAME387                       MARSEILLE           0550270920200323
00000388NAME388                       LILLE               0560271620200424
00000389NAME389                       NANTES              0570272320200525
00000390NAME390                       BORDEAUX            0580273020200626
00000391NAME391                       TOULOUSE            0590273720200727
00000392NAME392                       NICE                0600274420200828
00000393NAME393                       PARIS               0610275120200901
00000394NAME394                       LYON                0620275820201002
00000395NAME395                       MARSEILLE           0630276520201103
00000396NAME396                       LILLE               0640277220201204
00000397NAME397                       NANTES              0650277920200105
00000398NAME398                       BORDEAUX            0660278620200206
00000399NAME399                       TOULOUSE            0670279320200307
00000400NAME400                       NICE                0680280020200408
00000401NAME401                       PARIS               0690280720200509
00000402NAME402                       LYON                0700281420200610
00000403NAME403                       MARSEILLE           0710282120200711
00000404NAME404                       LILLE               0720282820200812
00000405NAME405                       NANTES              0730283520200913
00000406NAME406                       BORDEAUX            0740284220201014
00000407NAME407                       TOULOUSE            0750284920201115
00000408NAME408                       NICE                0760285620201216
00000409NAME409                       PARIS               0770286320200117
00000410NAME410                       LYON                0780287020200218
00000411NAME411                       MARSEILLE           0790287720200319
00000412NAME412                       LILLE               0800288420200420
00000413NAME413                       NANTES              0810289120200521
00000414NAME414                       BORDEAUX            0820289820200622
00000415NAME415                       TOULOUSE            0830290520200723
00000416NAME416                       NICE                0840291220200824
00000417NAME417                       PARIS               0850291920200925
00000418NAME418                       LYON                0860292620201026
00000419NAME419                       MARSEILLE           0870293320201127
00000420NAME420                       LILLE               0180294020201228
00000421NAME421                       NANTES              0190294720200101
00000422NAME422                       BORDEAUX            0200295420200202
00000423NAME423                       TOULOUSE            0210296120200303
00000424NAME424                       NICE                0220296820200404
00000425NAME425                       PARIS               0230297520200505
00000426NAME426                       LYON                0240298220200606
00000427NAME427                       MARSEILLE           0250298920200707
00000428NAME428                       LILLE               0260299620200808
00000429NAME429                       NANTES              0270300320200909
00000430NAME430                       BORDEAUX            0280301020201010
00000431NAME431                       TOULOUSE            0290301720201111
00000432NAME432                       NICE                0300302420201212
00000433NAME433                       PARIS               0310303120200113
00000434NAME434                       LYON                0320303820200214
00000435NAME435                       MARSEILLE           0330304520200315
00000436NAME436                       LILLE               0340305220200416
00000437NAME437                       NANTES              0350305920200517
00000438NAME438                       BORDEAUX            0360306620200618
00000439NAME439                       TOULOUSE            0370307320200719
00000440NAME440                       NICE                0380308020200820
00000441NAME441                       PARIS               0390308720200921
00000442NAME442                       LYON                0400309420201022
00000443NAME443                       MARSEILLE           0410310120201123
00000444NAME444                       LILLE               0420310820201224
00000445NAME445                       NANTES              0430311520200125
00000446NAME446                       BORDEAUX            0440312220200226
00000447NAME447                       TOULOUSE            0450312920200327
00000448NAME448                       NICE                0460313620200428
00000449NAME449                       PARIS               0470314320200501
00000450NAME450                       LYON                0480315020200602
00000451NAME451                       MARSEILLE           0490315720200703
00000452NAME452                       LILLE               0500316420200804
00000453NAME453                       NANTES              0510317120200905
00000454NAME454                       BORDEAUX            0520317820201006
00000455NAME455                       TOULOUSE            0530318520201107
00000456NAME456                       NICE                0540319220201208
00000457NAME457                       PARIS               0550319920200109
00000458NAME458                       LYON                0560320620200210
00000459NAME459                       MARSEILLE           0570321320200311
00000460NAME460                       LILLE               0580322020200412
00000461NAME461                       NANTES              0590322720200513
00000462NAME462                       BORDEAUX            0600323420200614
00000463NAME463                       TOULOUSE            0610324120200715
00000464NAME464                       NICE                0620324820200816
00000465NAME465                       PARIS               0630325520200917
00000466NAME466                       LYON                0640326220201018
00000467NAME467                       MARSEILLE           0650326920201119
00000468NAME468                       LILLE               0660327620201220
00000469NAME469                       NANTES              0670328320200121
00000470NAME470                       BORDEAUX            0680329020200222
00000471NAME471                       TOULOUSE            0690329720200323
00000472NAME472                       NICE                0700330420200424
00000473NAME473                       PARIS               0710331120200525
00000474NAME474                       LYON                0720331820200626
00000475NAME475                       MARSEILLE           0730332520200727
00000476NAME476                       LILLE               0740333220200828
00000477NAME477                       NANTES              0750333920200901
00000478NAME478                       BORDEAUX            0760334620201002
00000479NAME479                       TOULOUSE            0770335320201103
00000480NAME480                       NICE                0780336020201204
00000481NAME481                       PARIS               0790336720200105
00000482NAME482                       LYON                0800337420200206
00000483NAME483                       MARSEILLE           0810338120200307
00000484NAME484                       LILLE               0820338820200408
00000485NAME485                       NANTES              0830339520200509
00000486NAME486                       BORDEAUX            0840340220200610
00000487NAME487                       TOULOUSE            0850340920200711
00000488NAME488                       NICE                0860341620200812
00000489NAME489                       PARIS               0870342320200913
00000490NAME490                       LYON                0180343020201014
00000491NAME491                       MARSEILLE           0190343720201115
00000492NAME492                       LILLE               0200344420201216
00000493NAME493                       NANTES              0210345120200117
00000494NAME494                       BORDEAUX            0220345820200218
00000495NAME495                       TOULOUSE            0230346520200319
00000496NAME496                       NICE                0240347220200420
00000497NAME497                       PARIS               0250347920200521
00000498NAME498                       LYON                0260348620200622
00000499NAME499                       MARSEILLE           0270349320200723
00000500NAME500                       LILLE               0280350020200824
00000501NAME501                       NANTES              0290350720200925
00000502NAME502                       BORDEAUX            0300351420201026
00000503NAME503                       TOULOUSE            0310352120201127
00000504NAME504                       NICE                0320352820201228
00000505NAME505                       PARIS               0330353520200101
00000506NAME506                       LYON                0340354220200202
00000507NAME507                       MARSEILLE           0350354920200303
00000508NAME508                       LILLE               0360355620200404
00000509NAME509                       NANTES              0370356320200505
00000510NAME510                       BORDEAUX            0380357020200606
00000511NAME511                       TOULOUSE            0390357720200707
00000512NAME512                       NICE                0400358420200808
00000513NAME513                       PARIS               0410359120200909
00000514NAME514                       LYON                0420359820201010
00000515NAME515                       MARSEILLE           0430360520201111
00000516NAME516                       LILLE               0440361220201212
00000517NAME517                       NANTES              0450361920200113
00000518NAME518                       BORDEAUX            0460362620200214
00000519NAME519                       TOULOUSE            0470363320200315
00000520NAME520                       NICE                0480364020200416
00000521NAME521                       PARIS               0490364720200517
00000522NAME522                       LYON                0500365420200618
00000523NAME523                       MARSEILLE           0510366120200719
00000524NAME524                       LILLE               0520366820200820
00000525NAME525                       NANTES              0530367520200921
00000526NAME526                       BORDEAUX            0540368220201022
00000527NAME527                       TOULOUSE            0550368920201123
00000528NAME528                       NICE                0560369620201224
00000529NAME529                       PARIS               0570370320200125
00000530NAME530                       LYON                0580371020200226
00000531NAME531                       MARSEILLE           0590371720200327
00000532NAME532                       LILLE               0600372420200428
00000533NAME533                       NANTES              0610373120200501
00000534NAME534                       BORDEAUX            0620373820200602
00000535NAME535                       TOULOUSE            0630374520200703
00000536NAME536                       NICE                0640375220200804
00000537NAME537                       PARIS               0650375920200905
00000538NAME538                       LYON                0660376620201006
00000539NAME539                       MARSEILLE           0670377320201107
00000540NAME540                       LILLE               0680378020201208
00000541NAME541                       NANTES              0690378720200109
00000542NAME542                       BORDEAUX            0700379420200210
00000543NAME543                       TOULOUSE            0710380120200311
00000544NAME544                       NICE                0720380820200412
00000545NAME545                       PARIS               0730381520200513
00000546NAME546                       LYON                0740382220200614
00000547NAME547                       MARSEILLE           0750382920200715
00000548NAME548                       LILLE               0760383620200816
00000549NAME549                       NANTES              0770384320200917
00000550NAME550                       BORDEAUX            0780385020201018
00000551NAME551                       TOULOUSE            0790385720201119
00000552NAME552                       NICE                0800386420201220
00000553NAME553                       PARIS               0810387120200121
00000554NAME554                       LYON                0820387820200222
00000555NAME555                       MARSEILLE           0830388520200323
00000556NAME556                       LILLE               0840389220200424
00000557NAME557                       NANTES              0850389920200525
00000558NAME558                       BORDEAUX            0860390620200626
00000559NAME559                       TOULOUSE            0870391320200727
00000560NAME560                       NICE                0180392020200828
00000561NAME561                       PARIS               0190392720200901
00000562NAME562                       LYON                0200393420201002
00000563NAME563                       MARSEILLE           0210394120201103
00000564NAME564                       LILLE               0220394820201204
00000565NAME565                       NANTES              0230395520200105
00000566NAME566                       BORDEAUX            0240396220200206
00000567NAME567                       TOULOUSE            0250396920200307
00000568NAME568                       NICE                0260397620200408
00000569NAME569                       PARIS               0270398320200509
00000570NAME570                       LYON                0280399020200610
00000571NAME571                       MARSEILLE           0290399720200711
00000572NAME572                       LILLE               0300400420200812
00000573NAME573                       NANTES              0310401120200913
00000574NAME574                       BORDEAUX            0320401820201014
00000575NAME575                       TOULOUSE            0330402520201115
00000576NAME576                       NICE                0340403220201216
00000577NAME577                       PARIS               0350403920200117
00000578NAME578                       LYON                0360404620200218
00000579NAME579                       MARSEILLE           0370405320200319
00000580NAME580                       LILLE               0380406020200420
00000581NAME581                       NANTES              0390406720200521
00000582NAME582                       BORDEAUX            0400407420200622
00000583NAME583                       TOULOUSE            0410408120200723
00000584NAME584                       NICE                0420408820200824
00000585NAME585                       PARIS               0430409520200925
00000586NAME586                       LYON                0440410220201026
00000587NAME587                       MARSEILLE           0450410920201127
00000588NAME588                       LILLE               0460411620201228
00000589NAME589                       NANTES              0470412320200101
00000590NAME590                       BORDEAUX            0480413020200202
00000591NAME591                       TOULOUSE            0490413720200303
00000592NAME592                       NICE                0500414420200404
00000593NAME593                       PARIS               0510415120200505
00000594NAME594                       LYON                0520415820200606
00000595NAME595                       MARSEILLE           0530416520200707
00000596NAME596                       LILLE               0540417220200808
00000597NAME597                       NANTES              0550417920200909
00000598NAME598                       BORDEAUX            0560418620201010
00000599NAME599                       TOULOUSE            0570419320201111
00000600NAME600                       NICE                0580420020201212
00000601NAME601                       PARIS               0590420720200113
00000602NAME602                       LYON                0600421420200214
00000603NAME603                       MARSEILLE           0610422120200315
00000604NAME604                       LILLE               0620422820200416
00000605NAME605                       NANTES              0630423520200517
00000606NAME606                       BORDEAUX            0640424220200618
00000607NAME607                       TOULOUSE            0650424920200719
00000608NAME608                       NICE                0660425620200820
00000609NAME609                       PARIS               0670426320200921
00000610NAME610                       LYON                0680427020201022
00000611NAME611                       MARSEILLE           0690427720201123
00000612NAME612                       LILLE               0700428420201224
00000613NAME613                       NANTES              0710429120200125
00000614NAME614                       BORDEAUX            0720429820200226
00000615NAME615                       TOULOUSE            0730430520200327
00000616NAME616                       NICE                0740431220200428
00000617NAME617                       PARIS               0750431920200501
00000618NAME618                       LYON                0760432620200602
00000619NAME619                       MARSEILLE           0770433320200703
00000620NAME620                       LILLE               0780434020200804
00000621NAME621                       NANTES              0790434720200905
00000622NAME622                       BORDEAUX            0800435420201006
00000623NAME623                       TOULOUSE            0810436120201107
00000624NAME624                       NICE                0820436820201208
00000625NAME625                       PARIS               0830437520200109
00000626NAME626                       LYON                0840438220200210
00000627NAME627                       MARSEILLE           0850438920200311
00000628NAME628                       LILLE               0860439620200412
00000629NAME629                       NANTES              0870440320200513
00000630NAME630                       BORDEAUX            0180441020200614
00000631NAME631                       TOULOUSE            0190441720200715
00000632NAME632                       NICE                0200442420200816
00000633NAME633                       PARIS               0210443120200917
00000634NAME634                       LYON                0220443820201018
00000635NAME635                       MARSEILLE           0230444520201119
00000636NAME636                       LILLE               0240445220201220
00000637NAME637                       NANTES              0250445920200121
00000638NAME638                       BORDEAUX            0260446620200222
00000639NAME639                       TOULOUSE            0270447320200323
00000640NAME640                       NICE                0280448020200424
00000641NAME641                       PARIS               0290448720200525
00000642NAME642                       LYON                0300449420200626
00000643NAME643                       MARSEILLE           0310450120200727
00000644NAME644                       LILLE               0320450820200828
00000645NAME645                       NANTES              0330451520200901
00000646NAME646                       BORDEAUX            0340452220201002
00000647NAME647                       TOULOUSE            0350452920201103
00000648NAME648                       NICE                0360453620201204
00000649NAME649                       PARIS               0370454320200105
00000650NAME650                       LYON                0380455020200206
00000651NAME651                       MARSEILLE           0390455720200307
00000652NAME652                       LILLE               0400456420200408
00000653NAME653                       NANTES              0410457120200509
00000654NAME654                       BORDEAUX            0420457820200610
00000655NAME655                       TOULOUSE            0430458520200711
00000656NAME656                       NICE                0440459220200812
00000657NAME657                       PARIS               0450459920200913
00000658NAME658                       LYON                0460460620201014
00000659NAME659                       MARSEILLE           0470461320201115
00000660NAME660                       LILLE               0480462020201216
00000661NAME661                       NANTES              0490462720200117
00000662NAME662                       BORDEAUX            0500463420200218
00000663NAME663                       TOULOUSE            0510464120200319
00000664NAME664                       NICE                0520464820200420
00000665NAME665                       PARIS               0530465520200521
00000666NAME666                       LYON                0540466220200622
00000667NAME667                       MARSEILLE           0550466920200723
00000668NAME668                       LILLE               0560467620200824
00000669NAME669                       NANTES              0570468320200925
00000670NAME670                       BORDEAUX            0580469020201026
00000671NAME671                       TOULOUSE            0590469720201127
00000672NAME672                       NICE                0600470420201228
00000673NAME673                       PARIS               0610471120200101
00000674NAME674                       LYON                0620471820200202
00000675NAME675                       MARSEILLE           0630472520200303
00000676NAME676                       LILLE               0640473220200404
00000677NAME677                       NANTES              0650473920200505
00000678NAME678                       BORDEAUX            0660474620200606
00000679NAME679                       TOULOUSE            0670475320200707
00000680NAME680                       NICE                0680476020200808
00000681NAME681                       PARIS               0690476720200909
00000682NAME682                       LYON                0700477420201010
00000683NAME683                       MARSEILLE           0710478120201111
00000684NAME684                       LILLE               0720478820201212
00000685NAME685                       NANTES              0730479520200113
00000686NAME686                       BORDEAUX            0740480220200214
00000687NAME687                       TOULOUSE            0750480920200315
00000688NAME688                       NICE                0760481620200416
00000689NAME689                       PARIS               0770482320200517
00000690NAME690                       LYON                0780483020200618
00000691NAME691                       MARSEILLE           0790483720200719
00000692NAME692                       LILLE               0800484420200820
00000693NAME693                       NANTES              0810485120200921
00000694NAME694                       BORDEAUX            0820485820201022
00000695NAME695                       TOULOUSE            0830486520201123
00000696NAME696                       NICE                0840487220201224
00000697NAME697                       PARIS               0850487920200125
00000698NAME698                       LYON                0860488620200226
00000699NAME699                       MARSEILLE           0870489320200327
00000700NAME700                       LILLE               0180490020200428
00000701NAME701                       NANTES              0190490720200501
00000702NAME702                       BORDEAUX            0200491420200602
00000703NAME703                       TOULOUSE            0210492120200703
00000704NAME704                       NICE                0220492820200804
00000705NAME705                       PARIS               0230493520200905
00000706NAME706                       LYON                0240494220201006
00000707NAME707                       MARSEILLE           0250494920201107
00000708NAME708                       LILLE               0260495620201208
00000709NAME709                       NANTES              0270496320200109
00000710NAME710                       BORDEAUX            0280497020200210
00000711NAME711                       TOULOUSE            0290497720200311
00000712NAME712                       NICE                0300498420200412
00000713NAME713                       PARIS               0310499120200513
00000714NAME714                       LYON                0320499820200614
00000715NAME715                       MARSEILLE           0330500520200715
00000716NAME716                       LILLE               0340501220200816
00000717NAME717                       NANTES              0350501920200917
00000718NAME718                       BORDEAUX            0360502620201018
00000719NAME719                       TOULOUSE            0370503320201119
00000720NAME720                       NICE                0380504020201220
00000721NAME721                       PARIS               0390504720200121
00000722NAME722                       LYON                0400505420200222
00000723NAME723                       MARSEILLE           0410506120200323
00000724NAME724                       LILLE               0420506820200424
00000725NAME725                       NANTES              0430507520200525
00000726NAME726                       BORDEAUX            0440508220200626
00000727NAME727                       TOULOUSE            0450508920200727
00000728NAME728                       NICE                0460509620200828
00000729NAME729                       PARIS               0470510320200901
00000730NAME730                       LYON                0480511020201002
00000731NAME731                       MARSEILLE           0490511720201103
00000732NAME732                       LILLE               0500512420201204
00000733NAME733                       NANTES              0510513120200105
00000734NAME734                       BORDEAUX            0520513820200206
00000735NAME735                       TOULOUSE            0530514520200307
00000736NAME736                       NICE                0540515220200408
00000737NAME737                       PARIS               0550515920200509
00000738NAME738                       LYON                0560516620200610
00000739NAME739                       MARSEILLE           0570517320200711
00000740NAME740                       LILLE               0580518020200812
00000741NAME741                       NANTES              0590518720200913
00000742NAME742                       BORDEAUX            0600519420201014
00000743NAME743                       TOULOUSE            0610520120201115
00000744NAME744                       NICE                0620520820201216
00000745NAME745                       PARIS               0630521520200117
00000746NAME746                       LYON                0640522220200218
00000747NAME747                       MARSEILLE           0650522920200319
00000748NAME748                       LILLE               0660523620200420
00000749NAME749                       NANTES              0670524320200521
00000750NAME750                       BORDEAUX            0680525020200622
00000751NAME751                       TOULOUSE            0690525720200723
00000752NAME752                       NICE                0700526420200824
00000753NAME753                       PARIS               0710527120200925
00000754NAME754                       LYON                0720527820201026
00000755NAME755                       MARSEILLE           0730528520201127
00000756NAME756                       LILLE               0740529220201228
00000757NAME757                       NANTES              0750529920200101
00000758NAME758                       BORDEAUX            0760530620200202
00000759NAME759                       TOULOUSE            0770531320200303
00000760NAME760                       NICE                0780532020200404
00000761NAME761                       PARIS               0790532720200505
00000762NAME762                       LYON                0800533420200606
00000763NAME763                       MARSEILLE           0810534120200707
00000764NAME764                       LILLE               0820534820200808
00000765NAME765                       NANTES              0830535520200909
00000766NAME766                       BORDEAUX            0840536220201010
00000767NAME767                       TOULOUSE            0850536920201111
00000768NAME768                       NICE                0860537620201212
00000769NAME769                       PARIS               0870538320200113
00000770NAME770                       LYON                0180539020200214
00000771NAME771                       MARSEILLE           0190539720200315
00000772NAME772                       LILLE               0200540420200416
00000773NAME773                       NANTES              0210541120200517
00000774NAME774                       BORDEAUX            0220541820200618
00000775NAME775                       TOULOUSE            0230542520200719
00000776NAME776                       NICE                0240543220200820
00000777NAME777                       PARIS               0250543920200921
00000778NAME778                       LYON                0260544620201022
00000779NAME779                       MARSEILLE           0270545320201123
00000780NAME780                       LILLE               0280546020201224
00000781NAME781                       NANTES              0290546720200125
00000782NAME782                       BORDEAUX            0300547420200226
00000783NAME783                       TOULOUSE            0310548120200327
00000784NAME784                       NICE                0320548820200428
00000785NAME785                       PARIS               0330549520200501
00000786NAME786                       LYON                0340550220200602
00000787NAME787                       MARSEILLE           0350550920200703
00000788NAME788                       LILLE               0360551620200804
00000789NAME789                       NANTES              0370552320200905
00000790NAME790                       BORDEAUX            0380553020201006
00000791NAME791                       TOULOUSE            0390553720201107
00000792NAME792                       NICE                0400554420201208
00000793NAME793                       PARIS               0410555120200109
00000794NAME794                       LYON                0420555820200210
00000795NAME795                       MARSEILLE           0430556520200311
00000796NAME796                       LILLE               0440557220200412
00000797NAME797                       NANTES              0450557920200513
00000798NAME798                       BORDEAUX            0460558620200614
00000799NAME799                       TOULOUSE            0470559320200715
00000800NAME800                       NICE                0480560020200816
00000801NAME801                       PARIS               0490560720200917
00000802NAME802                       LYON                0500561420201018
00000803NAME803                       MARSEILLE           0510562120201119
00000804NAME804                       LILLE               0520562820201220
00000805NAME805                       NANTES              0530563520200121
00000806NAME806                       BORDEAUX            0540564220200222
00000807NAME807                       TOULOUSE            0550564920200323
00000808NAME808                       NICE                0560565620200424
00000809NAME809                       PARIS               0570566320200525
00000810NAME810                       LYON                0580567020200626
00000811NAME811                       MARSEILLE           0590567720200727
00000812NAME812                       LILLE               0600568420200828
00000813NAME813                       NANTES              0610569120200901
00000814NAME814                       BORDEAUX            0620569820201002
00000815NAME815                       TOULOUSE            0630570520201103
00000816NAME816                       NICE                0640571220201204
00000817NAME817                       PARIS               0650571920200105
00000818NAME818                       LYON                0660572620200206
00000819NAME819                       MARSEILLE           0670573320200307
00000820NAME820                       LILLE               0680574020200408
00000821NAME821                       NANTES              0690574720200509
00000822NAME822                       BORDEAUX            0700575420200610
00000823NAME823                       TOULOUSE            0710576120200711
00000824NAME824                       NICE                0720576820200812
00000825NAME825                       PARIS               0730577520200913
00000826NAME826                       LYON                0740578220201014
00000827NAME827                       MARSEILLE           0750578920201115
00000828NAME828                       LILLE               0760579620201216
00000829NAME829                       NANTES              0770580320200117
00000830NAME830                       BORDEAUX            0780581020200218
00000831NAME831                       TOULOUSE            0790581720200319
00000832NAME832                       NICE                0800582420200420
00000833NAME833                       PARIS               0810583120200521
00000834NAME834                       LYON                0820583820200622
00000835NAME835                       MARSEILLE           0830584520200723
00000836NAME836                       LILLE               0840585220200824
00000837NAME837                       NANTES              0850585920200925
00000838NAME838                       BORDEAUX            0860586620201026
00000839NAME839                       TOULOUSE            0870587320201127
00000840NAME840                       NICE                0180588020201228
00000841NAME841                       PARIS               0190588720200101
00000842NAME842                       LYON                0200589420200202
00000843NAME843                       MARSEILLE           0210590120200303
00000844NAME844                       LILLE               0220590820200404
00000845NAME845                       NANTES              0230591520200505
00000846NAME846                       BORDEAUX            0240592220200606
00000847NAME847                       TOULOUSE            0250592920200707
00000848NAME848                       NICE                0260593620200808
00000849NAME849                       PARIS               0270594320200909
00000850NAME850                       LYON                0280595020201010
00000851NAME851                       MARSEILLE           0290595720201111
00000852NAME852                       LILLE               0300596420201212
00000853NAME853                       NANTES              0310597120200113
00000854NAME854                       BORDEAUX            0320597820200214
00000855NAME855                       TOULOUSE            0330598520200315
00000856NAME856                       NICE                0340599220200416
00000857NAME857                       PARIS               0350599920200517
00000858NAME858                       LYON                0360600620200618
00000859NAME859                       MARSEILLE           0370601320200719
00000860NAME860                       LILLE               0380602020200820
00000861NAME861                       NANTES              0390602720200921
00000862NAME862                       BORDEAUX            0400603420201022
00000863NAME863                       TOULOUSE            0410604120201123
00000864NAME864                       NICE                0420604820201224
00000865NAME865                       PARIS               0430605520200125
00000866NAME866                       LYON                0440606220200226
00000867NAME867                       MARSEILLE           0450606920200327
00000868NAME868                       LILLE               0460607620200428
00000869NAME869                       NANTES              0470608320200501
00000870NAME870                       BORDEAUX            0480609020200602
00000871NAME871                       TOULOUSE            0490609720200703
00000872NAME872                       NICE                0500610420200804
00000873NAME873                       PARIS               0510611120200905
00000874NAME874                       LYON                0520611820201006
00000875NAME875                       MARSEILLE           0530612520201107
00000876NAME876                       LILLE               0540613220201208
00000877NAME877                       NANTES              0550613920200109
00000878NAME878                       BORDEAUX            0560614620200210
00000879NAME879                       TOULOUSE            0570615320200311
00000880NAME880                       NICE                0580616020200412
00000881NAME881                       PARIS               0590616720200513
00000882NAME882                       LYON                0600617420200614
00000883NAME883                       MARSEILLE           0610618120200715
00000884NAME884                       LILLE               0620618820200816
00000885NAME885                       NANTES              0630619520200917
00000886NAME886                       BORDEAUX            0640620220201018
00000887NAME887                       TOULOUSE            0650620920201119
00000888NAME888                       NICE                0660621620201220
00000889NAME889                       PARIS               0670622320200121
00000890NAME890                       LYON                0680623020200222
00000891NAME891                       MARSEILLE           0690623720200323
00000892NAME892                       LILLE               0700624420200424
00000893NAME893                       NANTES              0710625120200525
00000894NAME894                       BORDEAUX            0720625820200626
00000895NAME895                       TOULOUSE            0730626520200727
00000896NAME896                       NICE                0740627220200828
00000897NAME897                       PARIS               0750627920200901
00000898NAME898                       LYON                0760628620201002
00000899NAME899                       MARSEILLE           0770629320201103
00000900NAME900                       LILLE               0780630020201204
00000901NAME901                       NANTES              0790630720200105
00000902NAME902                       BORDEAUX            0800631420200206
00000903NAME903                       TOULOUSE            0810632120200307
00000904NAME904                       NICE                0820632820200408
00000905NAME905                       PARIS               0830633520200509
00000906NAME906                       LYON                0840634220200610
00000907NAME907                       MARSEILLE           0850634920200711
00000908NAME908                       LILLE               0860635620200812
00000909NAME909                       NANTES              0870636320200913
00000910NAME910                       BORDEAUX            0180637020201014
00000911NAME911                       TOULOUSE            0190637720201115
00000912NAME912                       NICE                0200638420201216
00000913NAME913                       PARIS               0210639120200117
00000914NAME914                       LYON                0220639820200218
00000915NAME915                       MARSEILLE           0230640520200319
00000916NAME916                       LILLE               0240641220200420
00000917NAME917                       NANTES              0250641920200521
00000918NAME918                       BORDEAUX            0260642620200622
00000919NAME919                       TOULOUSE            0270643320200723
00000920NAME920                       NICE                0280644020200824
00000921NAME921                       PARIS               0290644720200925
00000922NAME922                       LYON                0300645420201026
00000923NAME923                       MARSEILLE           0310646120201127
00000924NAME924                       LILLE               0320646820201228
00000925NAME925                       NANTES              0330647520200101
00000926NAME926                       BORDEAUX            0340648220200202
00000927NAME927                       TOULOUSE            0350648920200303
00000928NAME928                       NICE                0360649620200404
00000929NAME929                       PARIS               0370650320200505
00000930NAME930                       LYON                0380651020200606
00000931NAME931                       MARSEILLE           0390651720200707
00000932NAME932                       LILLE               0400652420200808
00000933NAME933                       NANTES              0410653120200909
00000934NAME934                       BORDEAUX            0420653820201010
00000935NAME935                       TOULOUSE            0430654520201111
00000936NAME936                       NICE                0440655220201212
00000937NAME937                       PARIS               0450655920200113
00000938NAME938                       LYON                0460656620200214
00000939NAME939                       MARSEILLE           0470657320200315
00000940NAME940                       LILLE               0480658020200416
00000941NAME941                       NANTES              0490658720200517
00000942NAME942                       BORDEAUX            0500659420200618
00000943NAME943                       TOULOUSE            0510660120200719
00000944NAME944                       NICE                0520660820200820
00000945NAME945                       PARIS               0530661520200921
00000946NAME946                       LYON                0540662220201022
00000947NAME947                       MARSEILLE           0550662920201123
00000948NAME948                       LILLE               0560663620201224
00000949NAME949                       NANTES              0570664320200125
00000950NAME950                       BORDEAUX            0580665020200226
00000951NAME951                       TOULOUSE            0590665720200327
00000952NAME952                       NICE                0600666420200428
00000953NAME953                       PARIS               0610667120200501
00000954NAME954                       LYON                0620667820200602
00000955NAME955                       MARSEILLE           0630668520200703
00000956NAME956                       LILLE               0640669220200804
00000957NAME957                       NANTES              0650669920200905
00000958NAME958                       BORDEAUX            0660670620201006
00000959NAME959                       TOULOUSE            0670671320201107
00000960NAME960                       NICE                0680672020201208
00000961NAME961                       PARIS               0690672720200109
00000962NAME962                       LYON                0700673420200210
00000963NAME963                       MARSEILLE           0710674120200311
00000964NAME964                       LILLE               0720674820200412
00000965NAME965                       NANTES              0730675520200513
00000966NAME966                       BORDEAUX            0740676220200614
00000967NAME967                       TOULOUSE            0750676920200715
00000968NAME968                       NICE                0760677620200816
00000969NAME969                       PARIS               0770678320200917
00000970NAME970                       LYON                0780679020201018
00000971NAME971                       MARSEILLE           0790679720201119
00000972NAME972                       LILLE               0800680420201220
00000973NAME973                       NANTES              0810681120200121
00000974NAME974                       BORDEAUX            0820681820200222
00000975NAME975                       TOULOUSE            0830682520200323
00000976NAME976                       NICE                0840683220200424
00000977NAME977                       PARIS               0850683920200525
00000978NAME978                       LYON                0860684620200626
00000979NAME979                       MARSEILLE           0870685320200727
00000980NAME980                       LILLE               0180686020200828
00000981NAME981                       NANTES              0190686720200901
00000982NAME982                       BORDEAUX            0200687420201002
00000983NAME983                       TOULOUSE            0210688120201103
00000984NAME984                       NICE                0220688820201204
00000985NAME985                       PARIS               0230689520200105
00000986NAME986                       LYON                0240690220200206
00000987NAME987                       MARSEILLE           0250690920200307
00000988NAME988                       LILLE               0260691620200408
00000989NAME989                       NANTES              0270692320200509
00000990NAME990                       BORDEAUX            0280693020200610
00000991NAME991                       TOULOUSE            0290693720200711
00000992NAME992                       NICE                0300694420200812
00000993NAME993                       PARIS               0310695120200913
00000994NAME994                       LYON                0320695820201014
00000995NAME995                       MARSEILLE           0330696520201115
00000996NAME996                       LILLE               0340697220201216
00000997NAME997                       NANTES              0350697920200117
00000998NAME998                       BORDEAUX            0360698620200218
00000999NAME999                       TOULOUSE            0370699320200319
00001000NAME1000                      NICE                0380700020200420
